{
  "contractName": "Owned",
  "abi": [
    {
      "inputs": [
        {
          "internalType": "address",
          "name": "_secondowner",
          "type": "address"
        }
      ],
      "payable": false,
      "stateMutability": "nonpayable",
      "type": "constructor"
    },
    {
      "anonymous": false,
      "inputs": [
        {
          "indexed": true,
          "internalType": "address",
          "name": "candidate",
          "type": "address"
        },
        {
          "indexed": true,
          "internalType": "address",
          "name": "owner",
          "type": "address"
        },
        {
          "indexed": false,
          "internalType": "bool",
          "name": "vote",
          "type": "bool"
        }
      ],
      "name": "Voit",
      "type": "event"
    },
    {
      "constant": true,
      "inputs": [],
      "name": "candidate",
      "outputs": [
        {
          "internalType": "address",
          "name": "",
          "type": "address"
        }
      ],
      "payable": false,
      "stateMutability": "view",
      "type": "function"
    },
    {
      "constant": true,
      "inputs": [],
      "name": "count",
      "outputs": [
        {
          "internalType": "uint256",
          "name": "",
          "type": "uint256"
        }
      ],
      "payable": false,
      "stateMutability": "view",
      "type": "function"
    },
    {
      "constant": true,
      "inputs": [],
      "name": "countOwner",
      "outputs": [
        {
          "internalType": "uint256",
          "name": "",
          "type": "uint256"
        }
      ],
      "payable": false,
      "stateMutability": "view",
      "type": "function"
    },
    {
      "constant": true,
      "inputs": [],
      "name": "countVotes",
      "outputs": [
        {
          "internalType": "uint256",
          "name": "",
          "type": "uint256"
        }
      ],
      "payable": false,
      "stateMutability": "view",
      "type": "function"
    },
    {
      "constant": true,
      "inputs": [],
      "name": "owner",
      "outputs": [
        {
          "internalType": "address",
          "name": "",
          "type": "address"
        }
      ],
      "payable": false,
      "stateMutability": "view",
      "type": "function"
    },
    {
      "constant": true,
      "inputs": [
        {
          "internalType": "uint256",
          "name": "",
          "type": "uint256"
        }
      ],
      "name": "ownersList",
      "outputs": [
        {
          "internalType": "address",
          "name": "",
          "type": "address"
        }
      ],
      "payable": false,
      "stateMutability": "view",
      "type": "function"
    },
    {
      "constant": true,
      "inputs": [],
      "name": "secondOwner",
      "outputs": [
        {
          "internalType": "address",
          "name": "",
          "type": "address"
        }
      ],
      "payable": false,
      "stateMutability": "view",
      "type": "function"
    },
    {
      "constant": false,
      "inputs": [],
      "name": "firstOwners",
      "outputs": [],
      "payable": false,
      "stateMutability": "nonpayable",
      "type": "function"
    },
    {
      "constant": false,
      "inputs": [
        {
          "internalType": "address",
          "name": "_newAddress",
          "type": "address"
        },
        {
          "internalType": "bool",
          "name": "_vote",
          "type": "bool"
        }
      ],
      "name": "voing",
      "outputs": [],
      "payable": false,
      "stateMutability": "nonpayable",
      "type": "function"
    }
  ],
  "bytecode": "0x608060405260006003556000600455600060055534801561001f57600080fd5b506040516110bf3803806110bf8339818101604052602081101561004257600080fd5b8101908080519060200190929190505050336000806101000a81548173ffffffffffffffffffffffffffffffffffffffff021916908373ffffffffffffffffffffffffffffffffffffffff16021790555080600160006101000a81548173ffffffffffffffffffffffffffffffffffffffff021916908373ffffffffffffffffffffffffffffffffffffffff16021790555050610fdb806100e46000396000f3fe608060405234801561001057600080fd5b50600436106100935760003560e01c80637f1bfc38116100665780637f1bfc38146101b85780638da5cb5b146102085780638ddf10ce14610252578063b647990a14610270578063cbd56a991461028e57610093565b806306661abd14610098578063402824ae146100b657806368a9f31c146101245780636c8381f81461016e575b600080fd5b6100a0610298565b6040518082815260200191505060405180910390f35b6100e2600480360360208110156100cc57600080fd5b810190808035906020019092919050505061029e565b604051808273ffffffffffffffffffffffffffffffffffffffff1673ffffffffffffffffffffffffffffffffffffffff16815260200191505060405180910390f35b61012c6102da565b604051808273ffffffffffffffffffffffffffffffffffffffff1673ffffffffffffffffffffffffffffffffffffffff16815260200191505060405180910390f35b610176610300565b604051808273ffffffffffffffffffffffffffffffffffffffff1673ffffffffffffffffffffffffffffffffffffffff16815260200191505060405180910390f35b610206600480360360408110156101ce57600080fd5b81019080803573ffffffffffffffffffffffffffffffffffffffff169060200190929190803515159060200190929190505050610326565b005b6102106107b4565b604051808273ffffffffffffffffffffffffffffffffffffffff1673ffffffffffffffffffffffffffffffffffffffff16815260200191505060405180910390f35b61025a6107d9565b6040518082815260200191505060405180910390f35b6102786107df565b6040518082815260200191505060405180910390f35b6102966107e5565b005b60055481565b600681815481106102ab57fe5b906000526020600020016000915054906101000a900473ffffffffffffffffffffffffffffffffffffffff1681565b600160009054906101000a900473ffffffffffffffffffffffffffffffffffffffff1681565b600260009054906101000a900473ffffffffffffffffffffffffffffffffffffffff1681565b81600260006101000a81548173ffffffffffffffffffffffffffffffffffffffff021916908373ffffffffffffffffffffffffffffffffffffffff1602179055506003546005541061037b5760006005819055505b600060066005548154811061038c57fe5b9060005260206000200160009054906101000a900473ffffffffffffffffffffffffffffffffffffffff1690506004600081548092919060010191905055508160086000600260009054906101000a900473ffffffffffffffffffffffffffffffffffffffff1673ffffffffffffffffffffffffffffffffffffffff1673ffffffffffffffffffffffffffffffffffffffff16815260200190815260200160002060008373ffffffffffffffffffffffffffffffffffffffff1673ffffffffffffffffffffffffffffffffffffffff16815260200190815260200160002060006101000a81548160ff0219169083151502179055506001151582151514156105005760096000600260009054906101000a900473ffffffffffffffffffffffffffffffffffffffff1673ffffffffffffffffffffffffffffffffffffffff1673ffffffffffffffffffffffffffffffffffffffff168152602001908152602001600020600081548092919060010191905055505b600354600454141561079d57600354600260096000600260009054906101000a900473ffffffffffffffffffffffffffffffffffffffff1673ffffffffffffffffffffffffffffffffffffffff1673ffffffffffffffffffffffffffffffffffffffff16815260200190815260200160002054021015806105e25750600060096000600260009054906101000a900473ffffffffffffffffffffffffffffffffffffffff1673ffffffffffffffffffffffffffffffffffffffff1673ffffffffffffffffffffffffffffffffffffffff16815260200190815260200160002054145b610654576040517f08c379a000000000000000000000000000000000000000000000000000000000815260040180806020018281038252600d8152602001807f566f74656420616761696e73740000000000000000000000000000000000000081525060200191505060405180910390fd5b6006600260009054906101000a900473ffffffffffffffffffffffffffffffffffffffff1690806001815401808255809150509060018203906000526020600020016000909192909190916101000a81548173ffffffffffffffffffffffffffffffffffffffff021916908373ffffffffffffffffffffffffffffffffffffffff1602179055505060068054905060076000600260009054906101000a900473ffffffffffffffffffffffffffffffffffffffff1673ffffffffffffffffffffffffffffffffffffffff1673ffffffffffffffffffffffffffffffffffffffff16815260200190815260200160002081905550600360008154809291906001019190505550600960008473ffffffffffffffffffffffffffffffffffffffff1673ffffffffffffffffffffffffffffffffffffffff168152602001908152602001600020600090555b600560008154809291906001019190505550505050565b6000809054906101000a900473ffffffffffffffffffffffffffffffffffffffff1681565b60035481565b60045481565b3373ffffffffffffffffffffffffffffffffffffffff166000809054906101000a900473ffffffffffffffffffffffffffffffffffffffff1673ffffffffffffffffffffffffffffffffffffffff16146108a7576040517f08c379a00000000000000000000000000000000000000000000000000000000081526004018080602001828103825260118152602001807f4f776e6572213d6d73672e73656e64657200000000000000000000000000000081525060200191505060405180910390fd5b6000809054906101000a900473ffffffffffffffffffffffffffffffffffffffff1673ffffffffffffffffffffffffffffffffffffffff16600160009054906101000a900473ffffffffffffffffffffffffffffffffffffffff1673ffffffffffffffffffffffffffffffffffffffff16141561096f576040517f08c379a0000000000000000000000000000000000000000000000000000000008152600401808060200182810382526026815260200180610f816026913960400191505060405180910390fd5b600260009054906101000a900473ffffffffffffffffffffffffffffffffffffffff1673ffffffffffffffffffffffffffffffffffffffff16600160009054906101000a900473ffffffffffffffffffffffffffffffffffffffff1673ffffffffffffffffffffffffffffffffffffffff161415610a38576040517f08c379a0000000000000000000000000000000000000000000000000000000008152600401808060200182810382526024815260200180610f5d6024913960400191505060405180910390fd5b600160009054906101000a900473ffffffffffffffffffffffffffffffffffffffff1673ffffffffffffffffffffffffffffffffffffffff166000809054906101000a900473ffffffffffffffffffffffffffffffffffffffff1673ffffffffffffffffffffffffffffffffffffffff1614158015610b2657506000809054906101000a900473ffffffffffffffffffffffffffffffffffffffff1673ffffffffffffffffffffffffffffffffffffffff16600160009054906101000a900473ffffffffffffffffffffffffffffffffffffffff1673ffffffffffffffffffffffffffffffffffffffff1614155b610b98576040517f08c379a000000000000000000000000000000000000000000000000000000000815260040180806020018281038252601c8152602001807f61646472657373206f776e6572203d3d207365636f6e644f776e65720000000081525060200191505060405180910390fd5b600260009054906101000a900473ffffffffffffffffffffffffffffffffffffffff1673ffffffffffffffffffffffffffffffffffffffff166000809054906101000a900473ffffffffffffffffffffffffffffffffffffffff1673ffffffffffffffffffffffffffffffffffffffff1614158015610c8657506000809054906101000a900473ffffffffffffffffffffffffffffffffffffffff1673ffffffffffffffffffffffffffffffffffffffff16600260009054906101000a900473ffffffffffffffffffffffffffffffffffffffff1673ffffffffffffffffffffffffffffffffffffffff1614155b610cf8576040517f08c379a000000000000000000000000000000000000000000000000000000000815260040180806020018281038252601a8152602001807f61646472657373206f776e6572203d3d2063616e64696461746500000000000081525060200191505060405180910390fd5b600260009054906101000a900473ffffffffffffffffffffffffffffffffffffffff1673ffffffffffffffffffffffffffffffffffffffff16600160009054906101000a900473ffffffffffffffffffffffffffffffffffffffff1673ffffffffffffffffffffffffffffffffffffffff1614158015610de85750600160009054906101000a900473ffffffffffffffffffffffffffffffffffffffff1673ffffffffffffffffffffffffffffffffffffffff16600260009054906101000a900473ffffffffffffffffffffffffffffffffffffffff1673ffffffffffffffffffffffffffffffffffffffff1614155b610e5a576040517f08c379a00000000000000000000000000000000000000000000000000000000081526004018080602001828103825260188152602001807f7365636f6e644f776e6572203d3d2063616e646964617465000000000000000081525060200191505060405180910390fd5b6000600160009054906101000a900473ffffffffffffffffffffffffffffffffffffffff16905060063390806001815401808255809150509060018203906000526020600020016000909192909190916101000a81548173ffffffffffffffffffffffffffffffffffffffff021916908373ffffffffffffffffffffffffffffffffffffffff1602179055505060068190806001815401808255809150509060018203906000526020600020016000909192909190916101000a81548173ffffffffffffffffffffffffffffffffffffffff021916908373ffffffffffffffffffffffffffffffffffffffff160217905550506006805490506003819055505056fe54686973206973207468652061646472657373206f66207468652063616e64696461746554686973206973207468652061646472657373206f6620746865206669727374206f776e6572a265627a7a7231582051ed774f97e2c305bd0fc4a63b3b0556c639b2104618a58b57cde7a19250fadc64736f6c63430005100032",
  "source": "pragma solidity ^0.5.16;\r\n\r\ncontract Owned {\r\n\r\n    address public owner ;\r\n    address public secondOwner;\r\n    address public candidate;\r\n    uint256 public countOwner=0; //количество элементов в масив (длина)\r\n    uint256 public countVotes = 0;\r\n    uint256 public count = 0;\r\n    \r\n    constructor(address _secondowner) public {\r\n        owner = msg.sender;\r\n        secondOwner = _secondowner;\r\n    }\r\n    \r\n    //Список владельцева\r\n    //Хранить параллельно значения массива и мепинга \r\n    address[] public ownersList;\r\n    mapping(address=>uint) ownersID;\r\n    \r\n    //for votes\r\n    // address[] public \r\n    mapping(address => mapping (address => bool)) votingMap; //\r\n    mapping(address => uint256) countVotesTrue;\r\n    \r\n    \r\n    event Voit( address indexed candidate, address indexed owner, bool vote);\r\n\r\n    // struct Voting{\r\n    //     address ownerAddress;\r\n    //     bool vote;\r\n    // }\r\n    \r\n    modifier onlyCoincidences{\r\n        require(owner != secondOwner && secondOwner!=owner, \"address owner == secondOwner\");\r\n        require(owner != candidate && candidate !=owner, \"address owner == candidate\");\r\n        require(secondOwner != candidate && candidate !=secondOwner, \"secondOwner == candidate\");\r\n        _;\r\n    }\r\n    \r\n    modifier onlyOwner  {\r\n        require(owner == msg.sender, \"Owner!=msg.sender\");\r\n        _;\r\n    }\r\n    \r\n    modifier onlySecondOwner {\r\n        require(secondOwner!=owner, 'This is the address of the first owner');\r\n        require(secondOwner!=candidate, 'This is the address of the candidate');\r\n        _;\r\n    }\r\n    \r\n    modifier onlyOwners {\r\n        require(ownersID[msg.sender] != 0);\r\n        _; \r\n    }\r\n    \r\n    function firstOwners()public onlyOwner onlySecondOwner onlyCoincidences {\r\n        address _secondowner = secondOwner;\r\n        ownersList.push(msg.sender);\r\n        ownersList.push(_secondowner);\r\n        countOwner=ownersList.length;\r\n    }\r\n    \r\n    // function addOwner(address _newAddress) public {\r\n        // require((countVotesTrue[candidate]*2)>=countOwner || countVotesTrue[candidate]==0 , \"Voted against\");\r\n        // // require(candidate==ownersList[count]);\r\n        // ownersList.push(candidate);\r\n        // ownersID[candidate]=ownersList.length;\r\n        // countOwner++;\r\n        // delete countVotesTrue[_newAddress];\r\n        // // delete votingMap[candidate][owner]; не могу перебрать всех owners;\r\n    // }\r\n    \r\n    function voing(address _newAddress, bool _vote) public{ \r\n        candidate = _newAddress;\r\n        if(count>=countOwner) count = 0;\r\n        address _owner = ownersList[count];\r\n        countVotes++;\r\n        // votingMap[candidate] = Voting({ownerAddress:_owner, vote: _vote});\r\n        votingMap[candidate][_owner]=_vote;\r\n        if(_vote==true){\r\n            countVotesTrue[candidate]++;\r\n        }\r\n        if(countVotes==countOwner) {\r\n            require((countVotesTrue[candidate]*2)>=countOwner || countVotesTrue[candidate]==0 , \"Voted against\");\r\n            ownersList.push(candidate);\r\n            ownersID[candidate]=ownersList.length;\r\n            countOwner++;\r\n            delete countVotesTrue[_newAddress];\r\n        }\r\n        count++;\r\n    }\r\n\r\n}\r\n",
  "sourcePath": "C:\\Users\\Lena\\Desktop\\Trainee\\ERC20_Owners\\ERC20MoreOwners\\contracts\\AddOwners.sol",
  "compiler": {
    "name": "solc",
    "version": "0.5.16+commit.9c3226ce.Emscripten.clang"
  },
  "schemaVersion": "3.2.1",
  "updatedAt": "2020-07-09T14:52:19.718Z",
  "devdoc": {
    "methods": {}
  },
  "userdoc": {
    "methods": {}
  }
}